:1000000014C02CC02BC02AC029C028C027C026C0BD
:1000100025C024C023C022C021C020C01FC01EC0D4
:100020001DC01CC01BC01AC019C011241FBECFEDBB
:10003000CDBF10E0A0E6B0E0EEE4F6E002C005902F
:100040000D92AE36B107D9F720E0AEE6B0E001C0C0
:100050001D92A237B207E1F74FD1F7C2D1CFE82FF7
:10006000F0E081E090E0062E01C0880F0A94EAF7E4
:10007000411104C080959081982302C09081982BF3
:10008000908308950F931F93CF93DF93C0E0D0E048
:10009000082F10E0A8010C2E02C0559547950A9430
:1000A000E2F7417055276C2F82E3D9DF2196C630E5
:1000B000D10581F7A801440F452F441F550B66E079
:1000C00082E3CDDF06FB442740F960E088E3DF915F
:1000D000CF911F910F91C3CF98B3946198BBD2DF9A
:1000E000C49880E899E20197F1F700C000008FEF13
:1000F000C9DFC29880E899E20197F1F700C00000DB
:100100000895C49ABFDFC4988FEFBCDF80E899E2FE
:100110000197F1F700C00000089587B38C6187BB99
:1001200081B38F6781BBB89A82E89CE70197F1F7AA
:1001300000C0000088E3E5DF81E0E3DF86E0E1DF87
:100140008CE0DFDF81E0DDCFCF93DF93EC0189919D
:10015000882311F0C1DFFBCFDF91CF910895D09AB2
:10016000D8988BEF93E00197F1F700C00000D0988A
:100170009AEA9A95F1F789B3EBEFF3E03197F1F74B
:1001800000C000008095817090E00895D09AD898C2
:1001900081EF8A95F1F7D0988EE08A95F1F700000B
:1001A0000895D09AD8988EE08A95F1F70000D098FB
:1001B00082EE8A95F1F700C08EE08A95F1F7000093
:1001C0000895D09AD8988EE08A95F1F70000D098DB
:1001D0008EE08A95F1F70000C89906C082EE8A95F4
:1001E000F1F700C080E0089582EE8A95F1F700C033
:1001F00081E008950F931F93CF93DF93C0E0D0E089
:10020000082F10E0C8010C2E02C0959587950A941E
:10021000E2F780FF0AC0C5DF2196C830D10591F70B
:10022000DF91CF911F910F910895B0DFF5CFCF925D
:10023000DF92EF92FF920F931F93CF93DF938FDFA5
:100240008CECD8DF84E4D6DF8ADF8CECD3DF8EEB56
:10025000D1DFB7DF811103C0C0E0D0E002C0C1E749
:10026000D2E0AFDF882311F0CE51DB4FAADF882325
:1002700011F0CC53D64FA5DF882311F0C857DC4EC0
:1002800018E0F12CF6949DDF882319F08F2D8068FB
:10029000F82E1150B9F788E090E068D08C0183E027
:1002A00090E064D06C014AE050E0BC018F2D9927AA
:1002B00087FD90958DD184E090E058D07C014AE094
:1002C00050E0BC01CE0184D1B601C80176D16CE604
:1002D00070E0C80172D1B701C8016FD1C601DED08C
:1002E000C701DCD0C801DF91CF911F910F91FF9022
:1002F000EF90DF90CF9008952FE980EF99E12150A2
:1003000080409040E1F700C0000007DF86E690E003
:100310001BDF2FE980EF99E1215080409040E1F709
:1003200000C00000C0E0D0E082DF7C0181E0E9DEB7
:10033000C7010ADF80ECE5DE88E090E017D08C0191
:100340004AE050E0BC01CE0143D1C801FDDEC80146
:10035000A5D0C701A3D021962FE183EB91E82150CE
:1003600080409040E1F700C00000DECFCF93DF93E4
:100370008230910510F482E090E0E0917000F091FD
:10038000710020E030E0A0E0B0E0309739F140812A
:10039000518148175907B8F04817590771F48281FD
:1003A0009381109729F013969C938E9312972CC0EB
:1003B000909371008093700027C02115310531F0B2
:1003C0004217530718F0A901DB0101C0EF019A01A0
:1003D000BD01DF010280F381E02DD7CF211531056A
:1003E000F9F0281B390B2430310580F48A819B8178
:1003F0006115710521F0FB019383828304C0909302
:10040000710080937000FE01329644C0FE01E20F3D
:10041000F31F8193919322503109398328833AC085
:1004200020916E0030916F00232B41F420916200E7
:100430003091630030936F0020936E002091600034
:10044000309161002115310541F42DB73EB740913F
:10045000640050916500241B350BE0916E00F09113
:100460006F00E217F307A0F42E1B3F0B2817390784
:1004700078F0AC014E5F5F4F2417350748F04E0F00
:100480005F1F50936F0040936E008193919302C061
:10049000E0E0F0E0CF01DF91CF910895CF93DF93BB
:1004A000009709F487C0FC01329713821282C09131
:1004B0007000D0917100209781F420813181280F44
:1004C000391F80916E0090916F008217930779F524
:1004D000F0936F00E0936E006DC0DE0120E030E02D
:1004E000AE17BF0750F412964D915C9113979D0182
:1004F0004115510509F1DA01F3CFB383A28340819D
:100500005181840F951F8A179B0771F48D919C91DF
:100510001197840F951F02969183808312968D9177
:100520009C911397938382832115310529F4F093CD
:100530007100E09370003EC0D9011396FC93EE93D6
:1005400012974D915D91A40FB51FEA17FB0779F43F
:1005500080819181840F951F0296D90111969C93F9
:100560008E938281938113969C938E931297E0E0F1
:10057000F0E08A819B81009719F0FE01EC01F9CF30
:10058000CE01029628813981820F931F20916E003F
:1005900030916F002817390769F4309729F41092C9
:1005A00071001092700002C013821282D0936F000B
:1005B000C0936E00DF91CF910895FB01DC010D9097
:1005C0000020E9F7119701900D920020E1F70895BE
:1005D0004532510518F4423008F004C0FB01108286
:1005E000CB010895BB274A3031F4992322F4BDE2B0
:1005F000909581959F4F01C0BB27FB015527AA27E6
:10060000880F991FAA1FA41710F0A41B839550519F
:10061000B9F7A05DAA3308F0A95DA193009779F717
:10062000B111B1931192CB0100C0DC01FC01672F25
:1006300071917723E1F7329704C07C916D937083B9
:0E0640006291AE17BF07C8F30895F894FFCF7C
:0E064E00000072002000496E69742E2E2E00EE
:00000001FF
